:020000040800F2
:100000009807002051640008B1090008B3090008EE
:10001000B7090008BB090008BF090008000000007C
:10002000000000000000000000000000C3090008FC
:10003000C509000800000000C7090008C909000838
:100040006B6400086B6400086B640008A35B000825
:100050006B6400086B6400086B6400086B64000844
:100060006B6400086B640008855D00086B64000821
:100070006B6400086B6400086B6400086B64000824
:100080006B6400086B6400086B6400086B64000814
:100090006B6400086B6400086B640008C15D0008B5
:1000A0006B6400086B6400086B6400086B640008F4
:1000B0002F600008ED5F00089F5F00086B64000878
:1000C0006B6400086B6400086B6400086B640008D4
:1000D0006B640008C76300086B6400086B64000869
:1000E0006B6400086B6400086B6400086B640008B4
:1000F0006B6400086B6400086B6400086B640008A4
:100100006B6400086B640008795F00086B6400088A
:100110006B6400086B6400086B6400086B64000883
:100120006B6400086B6400086B6400086B64000873
:1001300000F002F800F03FF80AA090E8000C8244BA
:100140008344AAF10107DA4501D100F034F8AFF297
:10015000090EBAE80F0013F0010F18BFFB1A43F0A5
:100160000103184780AF0000A0AF0000103A24BF81
:1001700078C878C1FAD8520724BF30C830C144BF0C
:1001800004680C607047000000230024002500264E
:10019000103A28BF78C1FBD8520728BF30C148BFEA
:1001A0000B607047642908F0DB85002070471FB59D
:1001B0001FBD10B510BD08F09BFE1146FFF7F7FFFD
:1001C00000F0F0F908F0B9FE03B4FFF7F2FF03BC4A
:1001D00006F09EF81CB510200090FE48828804238B
:1001E0003C21502005F057FA10200090F948827900
:1001F00002233C21782005F04EFA10200090F548AB
:10020000C27902233C21902005F045FAF148007A9A
:10021000072852D2DFE800F0040F1A25303B4600D1
:10022000EDA010210B46C822CDE900106C21502012
:1002300005F0E9FA41E0EBA010210B46C822CDE918
:1002400000106C21502005F0DEFA36E0E8A0102105
:100250000B46C822CDE900106C21502005F0D3FADE
:100260002BE0E6A010210B46C822CDE900106C213E
:10027000502005F0C8FA20E0E3A010210B46C82268
:10028000CDE900106C21502005F0BDFA15E0E1A089
:1002900010210B46C822CDE900106C21502005F03A
:1002A000B2FA0AE0DEA010210B46C822CDE9001008
:1002B0006C21502005F0A7FA00BF00BF102000906D
:1002C000C448027802235221502005F0E4F910209E
:1002D0000090C048427802235221682005F0DBF9E3
:1002E00010200090BB48827802235221802005F024
:1002F000D2F91CBD10B5CD48006820BB4FF4807109
:10030000CB4806F08EFD38B1CA48B0F90000642130
:1003100090FBF1F0282817DD642005F0CCFF4FF4A6
:100320008071C34806F07DFD38B1C248B0F90000C5
:10033000642190FBF1F028280CDD0120BE49086003
:10034000BE49C1F89C0105E00020BB490860BB49DB
:10035000C1F89C0110BD10B5B4480068002852D106
:10036000B748006830B39B480078122803DB0120AF
:10037000B44908700AE097480078062803DC012099
:10038000B049087002E00020AE490870AE4800781D
:10039000E0B90021AD4807F00FFF2021AC4806F07E
:1003A00040FD012802D1AB4908700FE00020A949A7
:1003B00008700BE0A248006840B90020A14908700D
:1003C000A44908700021A14807F0F6FE9D48007876
:1003D000012803D1002098490C3908609D48007815
:1003E000012806D19748007818B90121974807F0ED
:1003F000E3FE9448007830B99648007818B9012097
:100400008D490C39086010BD10B505F0D1FE894941
:10041000088010BD1CB590A010210B46C822CDE964
:1004200000108221142005F0EEF98BA010210B465C
:10043000C822CDE900109621142005F0E4F98BA024
:1004400010210B46C822CDE90010AA21142005F086
:10045000DAF98BA010210B46C822CDE90010BE218D
:10046000142005F0D0F98BA010210B46C822CDE94D
:100470000010D221142005F0C6F98BA010210B46E4
:10048000C822CDE90010E621142005F0BCF98BA0AC
:1004900010210B46C822CDE90010FA21142005F0E6
:1004A000B2F98DA010210B46C822CDE900104FF4FF
:1004B0008771142005F0A7F98CA010210B46C822E3
:1004C000CDE900104FF49171142005F09CF91CBD8A
:1004D0001CB54FF4A06005F0DBFF05F0AFFE4FF454
:1004E000E13005F024FF00F061FB00F021FC01F099
:1004F00046FB4FF478408249088082A010210B46C9
:10050000C822CDE900100A213C2005F07CF982A028
:1005100010210B46C822CDE900101E213C2005F019
:1005200072F982A010210B46C822CDE900102821C3
:100530003C2005F068F917E080A010210B46C82286
:10054000CDE9001082213C2005F05DF94FF44870A0
:1005500005F0B1FE7DA010210B46C822CDE90010A8
:1005600082213C2005F04FF905F0BBFA0028E3D1C9
:100570001F206349088079A010210B46C822CDE9CD
:1005800000103C21502005F03EF978A010210B46C8
:10059000C822CDE900105221502005F034F9FFF7B0
:1005A00039FF1CBD1CB50024FFF792FF00F015FBBE
:1005B00000F057FB05F0B6FB41F61F4143F69720CC
:1005C00005F051FC41F61F4143F6972005F078FCF9
:1005D000D2E000006200002053756E646179202033
:1005E000200000004D6F6E64617920202000000023
:1005F0005475657364617920200000005765646E4E
:100600006573646179000000546875727364617980
:1006100020000000467269646179202020000000FB
:100620005361747572646179200000000C00002031
:1006300000100140080000209801224200002242E0
:1006400004000020020000201100002000080040EB
:10065000001C01400100002048435F5352353031F7
:100660005F315F494E5055543A00000020205355E9
:100670004E5F5245535F494E505554203A0000009A
:100680004531385F4438304E4B315F494E505554F8
:100690003A0000004531385F4438304E4B325F49F4
:1006A0004E5055543A0000004E756D6265725F53AE
:1006B000747564656E7473203A0000004E756D6247
:1006C00065725F54454D5045522020203A2030300D
:1006D0002E303043000000004E756D6265725F4D34
:1006E000515F3220202020203A0000004175746FB5
:1006F0006D6174696F6E5F466C6167203A0000003F
:100700002A00002047524144554154494F4E20444D
:10071000455349474E0000002D2D2D2D2D2D2D2DFB
:100720002D2D2D2D2D2D2D2D2D0000003230313968
:100730002F30342F303820546573740052544320C6
:100740004552524F52212020200000005254432095
:10075000547279696E672E2E2E0000002020202012
:100760002D20202D202020202000000020203A20B5
:10077000203A20200000000041F61F4143F6972058
:1007800005F0CBFB05F096FC00F089FA1F207D49AF
:100790000880F5E0002000F0E5FA05462846012D26
:1007A0000ED0022819D0032826D0042833D1764849
:1007B000006808B9012000E00020734908602EE0BD
:1007C00071480068012807D17048006808B9012005
:1007D00000E000206D49086021E06B4800680128B6
:1007E00009D16A480C30006808B9012000E00020F7
:1007F00066490C31086012E063480068012809D19D
:1008000062481030006808B9012000E000205F490C
:100810001031086003E00A2005F04DFD00BF00BF65
:100820000A2C7DD1FFF7F0FD0121594806F0F9FAB5
:10083000804610200423424682210090A02004F02C
:100840002AFF0221524806F0ECFA804610200423C9
:10085000424696210090A02004F01DFF20214D4823
:1008600006F0DFFA8046102004234246AA210090B9
:10087000A02004F010FF1021454806F0D2FA80466F
:10088000102004234246BE210090A02004F003FF64
:1008900020213F4806F0C5FA804610200423424636
:1008A000D2210090A02004F0F6FE10200423009036
:1008B0003948E6210268A02004F0EDFE3748B0F97F
:1008C0000000642190FBF1F8002010210223424631
:1008D000CDE90010FA21A42004F027FF2F48B0F939
:1008E0000000642190FBF1F201FB1208802010212E
:1008F00002234246CDE90010FA21BC2004F015FF86
:100900004FF48071224806F08CFA804610200423B0
:1009100042464FF487710090A02004F0BCFE00E036
:1009200009E010200423009017484FF491710268E9
:10093000A02004F0B0FE322C04D1FFF70CFDFFF72D
:10094000D9FC0024642F07D11048026812480168BE
:1009500013A008F0C5F9002713488078B0420BD0E7
:1009600011488678FFF736FC1048006808B9012066
:1009700000E000200D490860601C84B2781C87B23A
:1009800008E700002A0000200C0000208C01224211
:1009900000100140001C014004000020080000205D
:1009A00025642025640D0A00620000209481214204
:1009B000704700BFFEE700BFFEE700BFFEE700BFD5
:1009C000FEE7704770477047704700000CB5002085
:1009D000019000906C48006840F480306A490860DB
:1009E00000BF6948006800F4003000900198401C86
:1009F0000190009818B90198B0F5A06FF1D1624844
:100A0000006800F4003010B10120009001E00020E7
:100A100000900098012843D15C48006840F0100025
:100A20005A4908600846006820F00300086008463C
:100A3000006840F00200086053484068524948602E
:100A40000846406848600846406840F48060486056
:100A50000846406820F47C1048600846406840F42E
:100A6000E81048600846006840F08070086000BFE9
:100A70004548006800F000700028F9D042484068FE
:100A800020F00300404948600846406840F00200FA
:100A9000486000BF3C48406800F00C000828F9D1CD
:100AA0000CBD10B5FFF792FF10BD10B536480068B9
:100AB00040F0010034490860084640683449084065
:100AC0003149486008460068324908402E490860AC
:100AD0000846006820F4802008600846406820F43A
:100AE000FE0048604FF41F008860FFF7DAFF4FF008
:100AF00000602949086010BD10B5002100200022C7
:100B0000214B5B6803F00C0121B1042906D00829B0
:100B100028D107E0214B224C236027E01F4B204CBB
:100B2000236023E0184B5B6803F47010164B5B687E
:100B300003F48032022303EB904022B9194B434364
:100B4000174C23600DE0104B5B6803F4003323B1B6
:100B5000144B4343124C236003E0104B4343104CAF
:100B6000236003E00D4B0E4C236000BF00BF064B1B
:100B70005B68C3F303130C4CE15C094B1B68CB406F
:100B8000074C236010BD000000100240002002400E
:100B90000000FFF8FFFFF6FE08ED00E000127A000B
:100BA0001400002000093D001800002008B50121B4
:100BB000082006F0C5FB2020ADF8000010208DF8BD
:100BC000030003208DF802006946544806F096F8A9
:100BD0002021524806F03FF908BD08B50121102038
:100BE00006F0AEFB0120ADF8000048208DF80300B0
:100BF00069464B4806F082F80121102006F0A0FB60
:100C00000220ADF8000048208DF8030069464448F2
:100C100006F074F80121802006F092FB2020ADF848
:100C2000000028208DF8030069463E4806F066F86B
:100C30000121102006F084FB0820ADF800001020F0
:100C40008DF8030003208DF802006946344806F051
:100C500055F80821324806F0FEF8012032490860B4
:100C600008BD08B50121102006F06AFB1020ADF880
:100C7000000048208DF803006946294806F03EF838
:100C80000121102006F05CFB2020ADF80000482078
:100C90008DF803006946224806F030F808BD08B513
:100CA0000121102006F04CFB4020ADF80000102080
:100CB0008DF8030003208DF802006946184806F0FD
:100CC0001DF84021164806F0C6F8002016490C31E0
:100CD00008600121102006F033FB8020ADF80000F1
:100CE00010208DF8030003208DF8020069460C489F
:100CF00006F004F800200D49C1F89C0101211020E4
:100D000006F01EFB4FF48070ADF8000048208DF80F
:100D100003006946024805F0F1FF08BD000C0140E0
:100D200000100140001C01408C01224200002242C0
:100D300008B50121442006F003FB1C20ADF800009B
:100D400048208DF803006946354805F0D7FF01209B
:100D5000ADF8000028208DF803006946314805F001
:100D6000CDFF08BD10B5044614B101202E4908700E
:100D70002D480078002837D01021294806F051F876
:100D800078B10821264806F04CF850B104212448D7
:100D900006F047F828B10121224806F042F8012860
:100DA00022D10A2005F087FA00201F49087010217F
:100DB0001B4806F036F808B9012010BD0821184874
:100DC00006F02FF808B90220F7E70421144806F0CE
:100DD00028F808B90320F0E70121124806F021F8AD
:100DE00001281BD10420E8E710210D4806F019F86E
:100DF000012813D108210A4806F013F801280DD163
:100E00000421074806F00DF8012807D10121054803
:100E100006F007F810B90120034908700020CCE75C
:100E2000001801400008014028000020F749088010
:100E30007047F649891C0880704708B5F348801C44
:100E400000880090BDF8000008BDF04A1080921C98
:100E50001180704710B504462046FFF7E7FF0520D4
:100E600005F005FAFFF7E9FF10BDE9480089E749F9
:100E700008807047E549891C0880704730B50146F5
:100E800001F01F04C1F34513CA0AE50205EB43153F
:100E90001544A8B230BD00BF0100A0F10102D0B2DC
:100EA000FAD1704710B503460C46D948808849F2FC
:100EB0004131884205D0D648808845F210318842B9
:100EC00014D1D3494889FFF7B1FF1812FFF7B1FFDA
:100ED000D8B2FFF7AEFFCE498889FFF7A7FF2012EF
:100EE000FFF7A7FFE0B2FFF7A4FFABE0C848808898
:100EF00046F6040188421DD1C5488079012804D1F5
:100F0000C3480088401EC01A83B2C1494889FFF710
:100F10008DFF1812FFF78DFFD8B2FFF78AFFBC498B
:100F20008889FFF783FF2012FFF783FFE0B2FFF706
:100F300080FF87E0B648808841F66311884247D138
:100F4000B3488079A8B9B2480088401EC01A83B25D
:100F5000AF494889FFF76AFF0020FFF76AFF0020CA
:100F6000FFF767FF1812FFF764FFD8B2FFF761FFC2
:100F700016E0A7494889FFF759FF1812FFF759FFF4
:100F8000D8B2FFF756FFA2490988491EC1F30F20C6
:100F9000FFF74FFF9E490978491EC8B2FFF749FF86
:100FA0009B498889FFF742FF2012FFF742FFE0B21A
:100FB000FFF73FFF96494988491EC1F30F20FFF70D
:100FC00038FF93498978491EC8B2FFF732FF39E0EC
:100FD0008F48808845F21051884220D18C49488939
:100FE000FFF724FF1812FFF724FF89494989491C9C
:100FF00088B2FFF71BFFD8B2FFF71BFF844988892F
:10100000FFF714FF2012FFF714FF81498989491C5B
:1010100088B2FFF70BFFE0B2FFF70BFF12E07C484E
:101020008079012804D17A480088401EC01A83B212
:10103000774948891946FFF708FF7549888921468D
:10104000FFF703FF10BD2DE9F04105460E460024D1
:101050000027A0466E480088A84203DD6C484088FF
:10106000B04202DC0020BDE8F08131462846FFF79F
:1010700019FF6748808849F24131884211D064489D
:10108000808846F6040188420BD06148808845F28A
:101090001031884205D05E48808841F6631188424D
:1010A00003D12E20FFF7C2FE0DE05948808845F29B
:1010B0001051884204D14FF43850FFF7B7FE02E0D8
:1010C0002220FFF7B3FE5248808849F2203188423F
:1010D00002D10220FFF7DFFEFFF7AFFE04464C48C7
:1010E000808841F66311884201D12046BBE7022087
:1010F000FFF7D1FEFFF7A1FE04464548808849F27C
:10110000413188420BD04248808845F210318842F4
:1011100005D03F48808845F2105188420AD102200C
:10112000FFF7B9FEFFF789FE8046E7B24FF6FF7082
:1011300000EA07273648808849F22531884216D0D0
:101140003348808844F23551884210D03048808836
:10115000091F88420BD02E4880884BF205518842E7
:1011600005D02B4880884CF20551884201D1204699
:1011700079E72748808849F2413188420BD02448DA
:10118000808845F21031884205D02148808845F298
:101190001051884207D1E012C002B91240EA411052
:1011A00040EAE8205FE72046FFF768FE5BE700B50E
:1011B0001748808849F24131884211D0144880880C
:1011C00046F6040188420BD01148808845F2103160
:1011D000884205D00E48808841F66311884203D1C9
:1011E0002920FFF723FE0FE00948808845F21051BF
:1011F000884204D14FF42450FFF718FE04E040F277
:1012000073110720FFF721FE00BD0000FE07006CF0
:101210005400002000B5FD48808849F241318842E1
:1012200011D0FA48808846F6040188420BD0F7486E
:10123000808845F21031884205D0F448808841F614
:101240006311884203D12820FFF7F0FD0EE0EF483C
:10125000808845F21051884204D14FF42050FFF7A6
:10126000E5FD03E000210720FFF7EFFD00BD70B5AD
:10127000044600230026E548807901280BD1E34885
:10128000808846F60401884205D0E048808841F60F
:101290006311884208D1DD488079F0B9DB48808845
:1012A00041F66311884218D1082C15D2DFE804F00A
:1012B0000406080A0C0E101206240DE007240BE0A9
:1012C000042409E0052407E0012405E0002403E0EC
:1012D000032401E0022400BF00BFCC48808849F20B
:1012E0004131884217D0C948808846F604018842B7
:1012F00011D0C648808845F2103188420BD0C348CF
:10130000808845F21051884205D0C048808841F657
:10131000631188427ED1082C1CD2DFE804F0040659
:10132000090C0F12151800BF14E043F0800311E000
:1013300043F040030EE043F0C0030BE043F0200312
:1013400008E043F0600305E043F0A00302E043F04F
:10135000E00300BF00BFAD48808845F210518842CD
:1013600002D14FF4585600E03626A848808845F24E
:10137000103188420DD0A548808845F2105188422E
:1013800007D0A248808841F66311884201D043F01B
:1013900008039E48808846F60401884201D143F044
:1013A000020319463046FFF750FD9848808841F601
:1013B000631188421DD003F0200068B19348008873
:1013C00092494988884214DA9048058840888F49B4
:1013D0000880084645800CE08C4800888B49498885
:1013E000884206DD89480588408888490880084683
:1013F00045808648808845F21051884254D18349FF
:101400004889FFF713FD0020FFF713FD7F49498945
:10141000491C00E077E088B2FFF708FD0020FFF7E5
:1014200008FD7A494989891C88B2FFF7FFFC774992
:101430000988491EC1F30F20FFF7FBFC7349498956
:10144000C91C88B2FFF7F2FC70490978491EC8B27E
:10145000FFF7EFFC6D498889FFF7E8FC0020FFF7F4
:10146000E8FC6A498989491C88B2FFF7DFFC002043
:10147000FFF7DFFC65498989891C88B2FFF7D6FC34
:1014800062494988491EC1F30F20FFF7D2FC5F492A
:101490008989C91C88B2FFF7C9FC5C498978491E53
:1014A000C8B2FFF7C6FC55E058494889FFF7BEFCB3
:1014B0000020FFF7BEFC0020FFF7BBFC5349098862
:1014C000491EC1F30F20FFF7B4FC50490978491EAB
:1014D000C8B2FFF7AEFC4D498889FFF7A7FC002092
:1014E000FFF7A7FC0020FFF7A4FC48494988491EE4
:1014F000C1F30F20FFF79DFC44498978491EC8B20B
:10150000FFF797FC26E0082C1CD2DFE804F0040764
:101510000A0D0F12151843F0300313E043F01003C7
:1015200010E043F020030DE000BF0BE043F0380370
:1015300008E043F0280305E043F0180302E043F01D
:10154000080300BF00BF032643F48053194630460A
:10155000FFF77BFC70BD30B504460D46294620469A
:10156000FFF7A0FCFFF781FC294800882949088083
:1015700030BD30B503460C4615462448808849F2F4
:101580004131884205D02148808845F21031884297
:1015900014D11E494889FFF749FC1812FFF749FC8E
:1015A000D8B2FFF746FC19498889FFF73FFC2012A3
:1015B000FFF73FFCE0B2FFF73CFC93E01348808864
:1015C00045F21051884227D110494889FFF72EFC77
:1015D0001812FFF72EFC0D494989491C88B2FFF704
:1015E00025FCD8B2FFF725FC08498889FFF71EFCC7
:1015F0002012FFF71EFC05498989491C88B2FFF7B4
:1016000015FCE0B2FFF715FC6CE000005400002070
:101610002A0000200008006CFC48808841F6631115
:10162000884228D1F948807920B9F8480088401EBE
:10163000C01A83B2F5494889FFF7F8FB1812FFF783
:10164000F8FBD8B2FFF7F5FB1812FFF7F2FBD8B2A0
:10165000FFF7EFFBED498889FFF7E8FB2012FFF762
:10166000E8FBE0B2FFF7E5FB2012FFF7E2FBE0B298
:10167000FFF7DFFB36E0E548808846F60401884244
:101680001DD1E2488079012804D1E0480088401E3D
:10169000C01A83B2DD494889FFF7C8FB1812FFF76B
:1016A000C8FBD8B2FFF7C5FBD8498889FFF7BEFB56
:1016B0002012FFF7BEFBE0B2FFF7BBFB12E0D348FE
:1016C0008079012804D1D1480088401EC01A83B215
:1016D000CE4948891946FFF7B8FBCC49888921468D
:1016E000FFF7B3FBC9480089C9490880881C0580F9
:1016F00030BD2DE9F0470446BE20FFF797FB0520DB
:10170000FFF797FB204607F080FE07464FF0663252
:10171000C04B07F08DFE054607F04AFE1FFA80F920
:101720004846FFF786FB0120FFF783FBFF20FFF70A
:1017300080FB0020FFF77DFB0020FFF77AFBBDE870
:10174000F08710B50446002C66D1B0498871F020AE
:1017500008804FF4A07048800846808849F24131E3
:1017600088420BD0A948808846F60401884205D0FB
:10177000A648808845F2103188421AD12C20A3490E
:1017800008812A2048812B2088810846808846F6D7
:101790000401884205D09D48808845F21031884276
:1017A00006D14FF4A070994908804FF4F07048803A
:1017B000A1E09648808845F21051884210D14FF43C
:1017C0003050924908814FF4285048814FF42C50F2
:1017D00088814FF4F07008804FF4487048808AE0A8
:1017E0008A48808841F6631188420DD12C208749B0
:1017F00008812B2048812A2088814FF4F0700880CE
:101800004FF44870488076E02220804908812020EB
:101810004881212088816EE001207C4988714FF445
:10182000A0700880F02048800846808849F2413145
:10183000884205D07548808845F21031884207D12A
:101840002C20724908812A2048812B2088813FE082
:101850006E48808846F60401884207D12C206B49E7
:1018600008812B2048812A20888131E067488088C0
:1018700045F21051884210D14FF43050634908812D
:101880004FF4285048814FF42C5088814FF4487011
:1018900008804FF4F07048801AE05C48808841F678
:1018A000631188420DD12C20584908812A20488193
:1018B0002B2088814FF4487008804FF4F0704880E6
:1018C00006E022205149088121204881202088817A
:1018D0004E48808846F60401884205D04B488088EF
:1018E00045F21031884206D14FF4F0704749088024
:1018F0004FF4A07048800020FFF7B9FC10BD2DE91F
:10190000F04F86B004460D469046994604EB080019
:10191000401E86B205EB0900401E87B23B48808816
:1019200049F24131884215D03848808845F210315B
:1019300088420FD03548808846F60401884209D095
:1019400032488079012826D13048808841F66311D9
:10195000884220D12D494889FFF768FA2012FFF705
:1019600068FAE0B2FFF765FA3012FFF762FAF0B2F8
:10197000FFF75FFA25498889FFF758FA2812FFF721
:1019800058FAE8B2FFF755FA3812FFF752FAF8B2F0
:10199000FFF74FFABEE01D48808841F66311884288
:1019A0003AD11A480088A0EB0800001B84B205EB6E
:1019B0000900401E1FFA80F914494889FFF736FADA
:1019C0002012FFF736FAE0B2FFF733FA04EB080112
:1019D000491EC1F30F20FFF72CFA04EB0801491E42
:1019E000C8B2FFF726FA09498889FFF71FFA2812BB
:1019F000FFF71FFAE8B2FFF71CFA4FEA2920FFF7BA
:101A000018FA09F0FF00FFF714FA83E054000020F1
:101A1000FE07006C66660440FE48808845F210515F
:101A2000884244D1FB494889FFF700FA2012FFF7AA
:101A300000FAF8494989491C88B2FFF7F7F9E0B282
:101A4000FFF7F7F9F3494989891C88B2FFF7EEF9E6
:101A50003012FFF7EEF9EF494989C91C88B2FFF748
:101A6000E5F9F0B2FFF7E5F9EA498889FFF7DEF911
:101A70002812FFF7DEF9E7498989491C88B2FFF788
:101A8000D5F9E8B2FFF7D5F9E2498989891C88B20E
:101A9000FFF7CCF93812FFF7CCF9DE498989C91C68
:101AA00088B2FFF7C3F9F8B2FFF7C3F932E0D948BB
:101AB000807901280ED1AA46BB46D6480088801BF3
:101AC000401E80B20190D3480088001B401E80B2A7
:101AD000009003E0A246B346019500975020059080
:101AE00051200490522003905320029051460598B3
:101AF000FFF7ABF959460498FFF7A7F90199039846
:101B0000FFF7A3F900990298FFF79FF929462046AD
:101B1000FFF7C8F906B0BDE8F08F70B5044600269F
:101B2000BC48058840884543BA48808846F6040189
:101B3000884216D1B7488079012812D10020B549D2
:101B400088712A2048812B20888100210846FFF7D0
:101B5000A9F90120AF4988712B2048812A2088816A
:101B600003E000210846FFF79DF9FFF77EF9002604
:101B700002E0A9480480761CAE42FAD370BD00B5DD
:101B80009FB00121080205F0CEFB01214FF4B47093
:101B900005F0D6FB0120ADF8780010208DF87B0011
:101BA00003208DF87A001EA99C4805F0A7F84CF296
:101BB0003370ADF8780018208DF87B0003208DF885
:101BC0007A001EA9964805F099F84FF68070ADF896
:101BD000780018208DF87B0003208DF87A001EA96C
:101BE000904805F08BF841F20100ADF8780018201C
:101BF0008DF87B0003208DF87A001EA98A4805F035
:101C00007DF801200890002009900F200A90002004
:101C10000B900C900D900E90019002900320039079
:101C20000020049005900690079006200F90002059
:101C30001090119010201290002013901590149085
:101C4000169017904FF480501890002019904FF480
:101C500080401A9000201B9008A81C9001A81D909D
:101C60000FA804F031FD0121062004F095FE32207A
:101C700004F021FB0020FFF7EDF866498880084654
:101C80008088FF280ADB084680884FF6FF7188426B
:101C900004D060488088B0F5134F7CD1D320FFF783
:101CA000C5F8FFF7CAF85B498880FFF7C6F85949BD
:101CB0008880FFF7C2F857498880084680884FF629
:101CC000FF7101EA002053498880FFF7B6F85149B7
:101CD000898808434F4988800846808849F2413105
:101CE000884258D0BF20FFF7A1F8FFF7A6F849496E
:101CF0008880FFF7A2F847498880FFF79EF845499A
:101D00008880FFF79AF843498880084680884FF614
:101D1000FF7101EA00203F498880FFF78EF83D49B6
:101D2000898808433B4988800846808846F6040134
:101D3000884230D0D420FFF779F8FFF77EF8354994
:101D40008880FFF77AF833498880FFF776F83149C1
:101D50008880084680884FF6FF7101EA00202D49EF
:101D60008880FFF76AF82B498988084329498880C9
:101D70000846808845F21031884263D04FF45A40BB
:101D8000FFF754F8FFF759F8224988804FF45B4079
:101D9000FFF74CF800E055E0FFF74FF81D49888049
:101DA000084680884FF6FF7101EA002019498880B3
:101DB0004FF45C40FFF73AF8FFF73FF81549898880
:101DC00008431449888008468088B0F5004F02D146
:101DD00045F2105088800F48808845F210518842A3
:101DE00030D0A120FFF722F8FFF727F809498880B3
:101DF000FFF723F807498880084680884FF6FF716F
:101E000001EA002003498880FFF717F80149898813
:101E100008430BE0540000200008006C000C014057
:101E2000001401400018014000200140FE49888054
:101E30000846808845F26171884203D141F66310FB
:101E4000F9498880F848808849F2413188427CD13C
:101E5000CF20FEF7EBFF0020FEF7EBFFC120FEF7DF
:101E6000E8FF3020FEF7E5FFED20FEF7DFFF6420FE
:101E7000FEF7DFFF0320FEF7DCFF1220FEF7D9FF9D
:101E80008120FEF7D6FFE820FEF7D0FF8520FEF781
:101E9000D0FF1020FEF7CDFF7A20FEF7CAFFCB203F
:101EA000FEF7C4FF3920FEF7C4FF2C20FEF7C1FF68
:101EB0000020FEF7BEFF3420FEF7BBFF0220FEF736
:101EC000B8FFF720FEF7B2FF2020FEF7B2FFEA20AE
:101ED000FEF7ACFF0020FEF7ACFF0020FEF7A9FFE5
:101EE000C020FEF7A3FF1B20FEF7A3FFC120FEF7D3
:101EF0009DFF0120FEF79DFFC520FEF797FF3020D4
:101F0000FEF797FF3020FEF794FFC720FEF78EFF05
:101F1000B720FEF78EFF3620FEF788FF4820FEF739
:101F200088FF3A20FEF782FF5520FEF782FFB1209E
:101F3000FEF77CFF0020FEF77CFF1A20FEF779FFFA
:101F4000B620FEF773FF0A2000E099E0FEF771FF6C
:101F5000A220FEF76EFFF220FEF768FF0020FEF7DA
:101F600068FF2620FEF762FF0120FEF762FFE020F7
:101F7000FEF75CFF0F20FEF75CFF2A20FEF759FFFB
:101F80002820FEF756FF0820FEF753FF0E20FEF72D
:101F900050FF0820FEF74DFF5420FEF74AFFA9200E
:101FA000FEF747FF4320FEF744FF0A20FEF741FFFC
:101FB0000F20FEF73EFF0020FEF73BFF0020FEF75C
:101FC00038FF0020FEF735FF0020FEF732FFE1204A
:101FD000FEF72CFF0020FEF72CFF1520FEF729FF4F
:101FE0001720FEF726FF0720FEF723FF1120FEF73C
:101FF00020FF0620FEF71DFF2B20FEF71AFF5620BC
:10200000FEF717FF3C20FEF714FF0520FEF711FF37
:102010001020FEF70EFF0F20FEF70BFF3F20FEF70C
:1020200008FF3F20FEF705FF0F20FEF702FF2B20E1
:10203000FEF7FCFE0020FEF7FCFE0020FEF7F9FE96
:102040000120FEF7F6FE3F20FEF7F3FE2A20FEF702
:10205000EDFE0020FEF7EDFE0020FEF7EAFE002078
:10206000FEF7E7FEEF20FEF7E4FE1120FEF7DEFEAE
:10207000782004F020F92920FEF7D8FE03F01DB9DE
:102080006948808846F6040188427CD11120FEF719
:10209000CDFE142004F00FF9D020FEF7C7FE072074
:1020A000FEF7C7FE4220FEF7C4FE1D20FEF7C1FE6C
:1020B000D120FEF7BBFE0020FEF7BBFE1A20FEF784
:1020C000B8FE0920FEF7B5FED220FEF7AFFE0120D4
:1020D000FEF7AFFE2220FEF7ACFEC020FEF7A6FE04
:1020E0001020FEF7A6FE3B20FEF7A3FE0020FEF721
:1020F000A0FE0220FEF79DFE1120FEF79AFEC520ED
:10210000FEF794FE0320FEF794FEC820FEF78EFE35
:102110000020FEF78EFE2520FEF78BFE2120FEF725
:1021200088FE0520FEF785FE0020FEF782FE0A20CD
:10213000FEF77FFE6520FEF77CFE2520FEF779FE88
:102140007720FEF776FE5020FEF773FE0F20FEF795
:1021500070FE0020FEF76DFEF820FEF767FE0120FE
:10216000FEF767FEFE20FEF761FE0020FEF761FE2F
:102170000220FEF75EFE2020FEF758FE3620FEF716
:1021800055FE082000E02CE0FEF753FE3A20FEF753
:102190004DFE5520FEF74DFE2B20FEF747FE00209A
:1021A000FEF747FE0020FEF744FE0120FEF741FE49
:1021B0003F20FEF73EFE2A20FEF738FE0020FEF705
:1021C00038FE0020FEF735FE0120FEF732FEDF204C
:1021D000FEF72FFE782004F06EF82920FEF726FE89
:1021E0004CE71148808845F21031884240F07C87E6
:1021F000ED20FEF71BFE0120FEF71BFEFE20FEF782
:1022000018FEEE20FEF712FEDE20FEF712FE212061
:10221000FEF70FFEF120FEF709FE0120FEF709FE92
:10222000DF20FEF703FE01E0540000201020FEF73F
:1022300000FEC420FEF7FAFD8F20FEF7FAFDC6204F
:10224000FEF7F4FD0020FEF7F4FDE220FEF7F1FDBD
:10225000E220FEF7EEFDE220FEF7EBFDBF20FEF7E9
:10226000E5FDAA20FEF7E5FDB020FEF7DFFD0D201D
:10227000FEF7DFFD0020FEF7DCFD0D20FEF7D9FDA7
:102280000020FEF7D6FD1120FEF7D3FD0020FEF75B
:10229000D0FD1920FEF7CDFD0020FEF7CAFD21205C
:1022A000FEF7C7FD0020FEF7C4FD2D20FEF7C1FD9F
:1022B0000020FEF7BEFD3D20FEF7BBFD0020FEF72F
:1022C000B8FD5D20FEF7B5FD0020FEF7B2FD5D20F4
:1022D000FEF7AFFD0020FEF7ACFDB120FEF7A6FD36
:1022E0008020FEF7A6FD0020FEF7A3FD8B20FEF761
:1022F000A0FD0020FEF79DFD9620FEF79AFD002030
:10230000FEF797FDB220FEF791FD0020FEF791FD4C
:102310000020FEF78EFD0220FEF78BFD0020FEF769
:1023200088FD0320FEF785FD0020FEF782FDB32027
:10233000FEF77CFD0020FEF77CFD0020FEF779FD16
:102340000020FEF776FD0020FEF773FD0020FEF76B
:1023500070FD0020FEF76DFD0020FEF76AFD0020F5
:10236000FEF767FD0020FEF764FD0020FEF761FD2B
:102370000020FEF75EFD0020FEF75BFD0020FEF76B
:1023800058FD0020FEF755FD0020FEF752FD00200D
:10239000FEF74FFD0020FEF74CFD0020FEF749FD43
:1023A0000020FEF746FD0020FEF743FD0020FEF76B
:1023B00040FD0020FEF73DFD0020FEF73AFD002025
:1023C000FEF737FDB420FEF731FD8B20FEF731FD1F
:1023D0000020FEF72EFD9620FEF72BFD0020FEF7D5
:1023E00028FDA120FEF725FD0020FEF722FDB520E7
:1023F000FEF71CFD0220FEF71CFD0020FEF719FD74
:102400000320FEF716FD0020FEF713FD0420FEF763
:1024100010FD0020FEF70DFDB620FEF707FD0020A1
:10242000FEF707FD0020FEF704FDB720FEF7FEFCD7
:102430000020FEF7FEFC0020FEF7FBFC3F20FEF72D
:10244000F8FC0020FEF7F5FC5E20FEF7F2FC002011
:10245000FEF7EFFC6420FEF7ECFC0020FEF7E9FC41
:102460008C20FEF7E6FC0020FEF7E3FCAC20FEF734
:10247000E0FC0020FEF7DDFCDC20FEF7DAFC0020AB
:10248000FEF7D7FC7020FEF7D4FC0020FEF7D1FC4D
:102490009020FEF7CEFC0020FEF7CBFCEB20FEF7F1
:1024A000C8FC0020FEF7C5FCDC20FEF7C2FC0020C3
:1024B000FEF7BFFCB820FEF7B9FC0020FEF7B9FC20
:1024C0000020FEF7B6FC0020FEF7B3FC0020FEF76C
:1024D000B0FC0020FEF7ADFC0020FEF7AAFC0020B7
:1024E000FEF7A7FC0020FEF7A4FCBA20FEF79EFC36
:1024F0002420FEF79EFC0020FEF79BFC0020FEF748
:1025000098FC0020FEF795FCC120FEF78FFC2020F0
:10251000FEF78FFC0020FEF78CFC5420FEF789FCB0
:102520000020FEF786FCFF20FEF783FC0020FEF76C
:1025300080FCC220FEF77AFC0A20FEF77AFC00201D
:10254000FEF777FC0420FEF774FC0020FEF771FC18
:10255000C320FEF76BFC3C20FEF76BFC0020FEF76F
:1025600068FC3A20FEF765FC0020FEF762FC39208B
:10257000FEF75FFC0020FEF75CFC3720FEF759FCFD
:102580000020FEF756FC3C20FEF753FC0020FEF72F
:1025900050FC3620FEF74DFC0020FEF74AFC3220AE
:1025A000FEF747FC0020FEF744FC2F20FEF741FC1D
:1025B0000020FEF73EFC2C20FEF73BFC0020FEF73F
:1025C00038FC2920FEF735FC0020FEF732FC2620DF
:1025D000FEF72FFC0020FEF72CFC2420FEF729FC40
:1025E0000020FEF726FC2420FEF723FC0020FEF747
:1025F00020FC2320FEF71DFC0020FEF71AFC3C20E7
:10260000FEF717FC0020FEF714FC3620FEF711FC45
:102610000020FEF70EFC3220FEF70BFC0020FEF738
:1026200008FC2F20FEF705FC0020FEF702FC2C2002
:10263000FEF7FFFB0020FEF7FCFB2920FEF7F9FB6D
:102640000020FEF7F6FB2620FEF7F3FB0020FEF746
:10265000F0FB2420FEF7EDFB0020FEF7EAFB242030
:10266000FEF7E7FB0020FEF7E4FB2320FEF7E1FB8B
:102670000020FEF7DEFBC420FEF7D8FB6220FEF749
:10268000D8FB0020FEF7D5FB0520FEF7D2FB00208B
:10269000FEF7CFFB8420FEF7CCFB0020FEF7C9FB42
:1026A000F020FEF7C6FB0020FEF7C3FB1820FEF764
:1026B000C0FB0020FEF7BDFBA420FEF7BAFB002004
:1026C000FEF7B7FB1820FEF7B4FB0020FEF7B1FBC6
:1026D0005020FEF7AEFB0020FEF7ABFB0C20FEF710
:1026E000A8FB0020FEF7A5FB1720FEF7A2FB0020A9
:1026F000FEF79FFB9520FEF79CFB0020FEF799FB61
:10270000F320FEF796FB0020FEF793FBE620FEF792
:1027100090FB0020FEF78DFBC520FEF787FB3220E3
:10272000FEF787FB0020FEF784FB4420FEF781FBC9
:102730000020FEF77EFB6520FEF77BFB0020FEF706
:1027400078FB7620FEF775FB0020FEF772FB8820F1
:10275000FEF76FFB0020FEF76CFBC620FEF766FB62
:102760002020FEF766FB0020FEF763FB1720FEF734
:1027700060FB0020FEF75DFB0120FEF75AFB002006
:10278000FEF757FBC720FEF751FB0020FEF751FB79
:102790000020FEF74EFB0020FEF74BFB0020FEF76B
:1027A00048FBC820FEF742FB0020FEF742FB00205A
:1027B000FEF73FFB0020FEF73CFB0020FEF739FB55
:1027C000C920FEF733FB0020FEF733FB0020FEF7A5
:1027D00030FB0020FEF72DFB0020FEF72AFB002037
:1027E000FEF727FB0020FEF724FB0020FEF721FB6D
:1027F0000020FEF71EFB0020FEF71BFB0020FEF76B
:1028000018FB0020FEF715FB0020FEF712FB00204E
:10281000FEF70FFB0020FEF70CFB0020FEF709FB84
:102820000020FEF706FBE020FEF700FB1620FEF777
:1028300000FB0020FEF7FDFA1C20FEF7FAFA00204C
:10284000FEF7F7FA2120FEF7F4FA0020FEF7F1FA7E
:102850003620FEF7EEFA0020FEF7EBFA4620FEF7F0
:10286000E8FA0020FEF7E5FA5220FEF7E2FA00202F
:10287000FEF7DFFA6420FEF7DCFA0020FEF7D9FA53
:102880007A20FEF7D6FA0020FEF7D3FA8B20FEF767
:10289000D0FA0020FEF7CDFA9920FEF7CAFA002000
:1028A000FEF7C7FAA820FEF7C4FA0020FEF7C1FA27
:1028B000B920FEF7BEFA0020FEF7BBFAC420FEF7EF
:1028C000B8FA0020FEF7B5FACA20FEF7B2FA0020E7
:1028D000FEF7AFFAD220FEF7ACFA0020FEF7A9FA15
:1028E000D920FEF7A6FA0020FEF7A3FAE020FEF7B3
:1028F000A0FA0020FEF79DFAF320FEF79AFA0020D6
:10290000FEF797FAE120FEF791FA1620FEF791FA0A
:102910000020FEF78EFA1C20FEF78BFA0020FEF74F
:1029200088FA2220FEF785FA0020FEF782FA362088
:10293000FEF77FFA0020FEF77CFA4520FEF779FAD1
:102940000020FEF776FA5220FEF773FA0020FEF719
:1029500070FA6420FEF76DFA0020FEF76AFA7A201A
:10296000FEF767FA0020FEF764FA8B20FEF761FAA3
:102970000020FEF75EFA9920FEF75BFA0020FEF7D2
:1029800058FAA820FEF755FA0020FEF752FAB920AF
:10299000FEF74FFA0020FEF74CFAC420FEF749FA82
:1029A0000020FEF746FACA20FEF743FA0020FEF7A1
:1029B00040FAD220FEF73DFA0020FEF73AFAD8207E
:1029C000FEF737FA0020FEF734FAE020FEF731FA7E
:1029D0000020FEF72EFAF320FEF72BFA0020FEF778
:1029E00028FAE220FEF722FA0520FEF722FA00205C
:1029F000FEF71FFA0B20FEF71CFA0020FEF719FA6B
:102A00001B20FEF716FA0020FEF713FA3420FEF71B
:102A100010FA0020FEF70DFA4420FEF70AFA002013
:102A2000FEF707FA4F20FEF704FA0020FEF701FA3E
:102A30006120FEF7FEF90020FEF7FBF97920FEF792
:102A4000F8F90020FEF7F5F98820FEF7F2F90020EA
:102A5000FEF7EFF99720FEF7ECF90020FEF7E9F911
:102A6000A620FEF7E6F90020FEF7E3F9B720FEF70F
:102A7000E0F90020FEF7DDF9C220FEF7DAF90020C8
:102A8000FEF7D7F9C720FEF7D4F90020FEF7D1F9F9
:102A9000D120FEF7CEF90020FEF7CBF9D620FEF7C5
:102AA000C8F90020FEF7C5F9DD20FEF7C2F90020C5
:102AB000FEF7BFF9F320FEF7BCF90020FEF7B9F9E5
:102AC000E320FEF7B3F90520FEF7B3F90020FEF787
:102AD000B0F90A20FEF7ADF90020FEF7AAF91C2094
:102AE000FEF7A7F90020FEF7A4F93320FEF7A1F9BD
:102AF0000020FEF79EF94420FEF79BF90020FEF728
:102B000098F95020FEF795F90020FEF792F962201F
:102B1000FEF78FF90020FEF78CF97820FEF789F98F
:102B20000020FEF786F98820FEF783F90020FEF7E3
:102B300080F99720FEF77DF90020FEF77AF9A620AC
:102B4000FEF777F90020FEF774F9B720FEF771F968
:102B50000020FEF76EF9C220FEF76BF90020FEF7A9
:102B600068F9C720FEF765F90020FEF762F9D12069
:102B7000FEF75FF90020FEF75CF9D520FEF759F962
:102B80000020FEF756F9DD20FEF753F90020FEF78E
:102B900050F9F320FEF74DF90020FEF74AF9E42042
:102BA000FEF744F90120FEF744F90020FEF741F951
:102BB0000120FEF73EF90020FEF73BF90220FEF768
:102BC00038F90020FEF735F92A20FEF732F9002007
:102BD000FEF72FF93C20FEF72CF90020FEF729F92B
:102BE0004B20FEF726F90020FEF723F95D20FEF7C3
:102BF00020F90020FEF71DF97420FEF71AF90020D5
:102C0000FEF717F98420FEF714F90020FEF711F9FA
:102C10009320FEF70EF90020FEF70BF9A220FEF735
:102C200008F90020FEF705F9B320FEF702F90020AD
:102C3000FEF7FFF8BE20FEF7FCF80020FEF7F9F8DB
:102C4000C420FEF7F6F80020FEF7F3F8CD20FEF7DB
:102C5000F0F80020FEF7EDF8D320FEF7EAF80020A8
:102C6000FEF7E7F8DD20FEF7E4F80020FEF7E1F8D4
:102C7000F320FEF7DEF80020FEF7DBF8E520FEF794
:102C8000D5F80020FEF7D5F80020FEF7D2F8002096
:102C9000FEF7CFF80020FEF7CCF80220FEF7C9F8C7
:102CA0000020FEF7C6F82920FEF7C3F80020FEF743
:102CB000C0F83C20FEF7BDF80020FEF7BAF84B2024
:102CC000FEF7B7F80020FEF7B4F85D20FEF7B1F884
:102CD0000020FEF7AEF87420FEF7ABF80020FEF7F8
:102CE000A8F88420FEF7A5F80020FEF7A2F89320AC
:102CF000FEF79FF80020FEF79CF8A220FEF799F857
:102D00000020FEF796F8B320FEF793F80020FEF7B8
:102D100090F8BE20FEF78DF80020FEF78AF8C42058
:102D2000FEF787F80020FEF784F8CD20FEF781F843
:102D30000020FEF77EF8D320FEF77BF80020FEF798
:102D400078F8DC20FEF775F80020FEF772F8F32023
:102D5000FEF76FF80020FEF76CF8E620FEF766F845
:102D60001120FEF766F80020FEF763F83420FEF726
:102D700060F80020FEF75DF85620FEF75AF80020B4
:102D8000FEF757F87620FEF754F80020FEF751F8CA
:102D90007720FEF74EF80020FEF74BF86620FEF78E
:102DA00048F80020FEF745F88820FEF742F800209A
:102DB000FEF73FF89920FEF73CF80020FEF739F8BF
:102DC000BB20FEF736F80020FEF733F89920FEF717
:102DD00030F80020FEF72DF86620FEF72AF80020D4
:102DE000FEF727F85520FEF724F80020FEF721F81B
:102DF0005520FEF71EF80020FEF71BF84520FEF7D1
:102E000018F80020FEF715F84320FEF712F800200E
:102E1000FEF70FF84420FEF70CF80020FEF709F843
:102E2000E720FEF703F83220FEF703F80020FEF754
:102E300000F85520FDF7FDFF0020FDF7FAFF762092
:102E4000FDF7F7FF0020FDF7F4FF6620FDF7F1FF27
:102E50000020FDF7EEFF6720FDF7EBFF0020FDF7F8
:102E6000E8FF6720FDF7E5FF0020FDF7E2FF872080
:102E7000FDF7DFFF0020FDF7DCFF9920FDF7D9FF0C
:102E80000020FDF7D6FFBB20FDF7D3FF0020FDF7A4
:102E9000D0FF9920FDF7CDFF0020FDF7CAFF772076
:102EA000FDF7C7FF0020FDF7C4FF4420FDF7C1FF79
:102EB0000020FDF7BEFF5620FDF7BBFF0020FDF709
:102EC000B8FF2320FDF7B5FF0020FDF7B2FF332048
:102ED000FDF7AFFF0020FDF7ACFF4520FDF7A9FF90
:102EE0000020FDF7A6FFE820FDF7A0FF0020FDF77A
:102EF000A0FF0020FDF79DFF9920FDF79AFF00201D
:102F0000FDF797FF8720FDF794FF0020FDF791FF65
:102F10008820FDF78EFF0020FDF78BFF7720FDF75F
:102F200088FF0020FDF785FF6620FDF782FF002067
:102F3000FDF77FFF8820FDF77CFF0020FDF779FF7C
:102F4000AA20FDF776FF0020FDF773FFBB20FDF7F9
:102F500070FF0020FDF76DFF9920FDF76AFF00204C
:102F6000FDF767FF6620FDF764FF0020FDF761FFB6
:102F70005520FDF75EFF0020FDF75BFF5520FDF7B4
:102F800058FF0020FDF755FF4420FDF752FF0020B9
:102F9000FDF74FFF4420FDF74CFF0020FDF749FFF0
:102FA0005520FDF746FF0020FDF743FFE920FDF720
:102FB0003DFFAA20FDF73DFF0020FDF73AFF00206E
:102FC000FDF737FF0020FDF734FF0020FDF72EFF4F
:102FD000AA20FDF72EFFCF20FDF728FF0020FDF7E8
:102FE00028FF0020FDF725FF0020FDF722FF00202D
:102FF000FDF71FFF0020FDF71CFF0020FDF719FF64
:103000000020FDF716FF0020FDF713FF0020FDF75D
:1030100010FF0020FDF70DFF0020FDF70AFF002044
:10302000FDF707FF0020FDF704FF0020FDF701FF7B
:103030000020FDF7FEFE0020FDF7FBFE0020FDF75F
:10304000F8FEF020FDF7F2FE0020FDF7F2FE502022
:10305000FDF7EFFE0020FDF7ECFE0020FDF7E9FE96
:103060000020FDF7E6FEF320FDF7E0FE0020FDF76F
:10307000E0FEF920FDF7DAFE0620FDF7DAFE10206B
:10308000FDF7D7FE2920FDF7D4FE0020FDF7D1FE85
:103090003A20FDF7CBFE5520FDF7CBFE1120FDF7C2
:1030A000C5FE642003F007F92920FDF7BFFE352097
:1030B000FDF7BCFE0020FDF7BCFE5120FDF7B6FE7B
:1030C000FF20FDF7B6FE5320FDF7B0FE2C20FDF7E4
:1030D000B0FE5520FDF7AAFE8220FDF7AAFE2C20A7
:1030E000FDF7A4FE02F0E9B8FE48808845F21051D1
:1030F00088427DD155214FF47040FDF7A6FEAA21EC
:103100004FF20100FDF7A1FE52214FF20200FDF740
:103110009CFE08214FF20300FDF797FE01214FF2BC
:103120000400FDF792FE0D214FF43040FDF78DFEB7
:103130000D214BF20100FDF788FE0D214BF202003C
:10314000FDF783FE34214FF43640FDF77EFE342137
:103150004BF20160FDF779FE34214BF20260FDF77E
:1031600074FE0D214FF43140FDF76FFE0D214BF23F
:103170000110FDF76AFE0D214BF20210FDF765FE0E
:1031800034214FF43740FDF760FE34214BF20170DB
:10319000FDF75BFE34214BF20270FDF756FE002175
:1031A0004FF43240FDF751FE00214BF20120FDF7B4
:1031B0004CFE00214BF20220FDF747FE24214FF484
:1031C0003840FDF742FE24214BF60100FDF73DFE9D
:1031D00024214BF60200FDF738FE01214FF43F4059
:1031E000FDF733FE0F214FF43340FDF72EFE00E0D4
:1031F000FDE30F214BF20130FDF727FE0F214BF2CB
:103200000230FDF722FE34214FF43940FDF71DFE58
:1032100034214BF60110FDF718FE34214BF6021055
:10322000FDF713FE08214FF43540FDF70EFE08218F
:103230004BF20150FDF709FE08214BF20250FDF759
:1032400004FE03214FF44240FDF7FFFD24214FF41B
:103250003A40FDF7FAFD24214BF60120FDF7F5FD7C
:1032600024214BF60220FDF7F0FD00214FF43C40F5
:10327000FDF7EBFD78214BF60140FDF7E6FD00215F
:103280004BF60240FDF7E1FD00214FF43D40FDF714
:10329000DCFD78214BF60150FDF7D7FD00214BF600
:1032A0000250FDF7D2FD00214FF43E40FDF7CDFD69
:1032B00064214BF60160FDF7C8FD00214FF4514039
:1032C000FDF7C3FD33214DF20110FDF7BEFD0021D6
:1032D0004DF20210FDF7B9FD34214DF20310FDF758
:1032E000B4FD00214DF20410FDF7AFFD3A214DF27F
:1032F0000510FDF7AAFD00214DF20610FDF7A5FD12
:103300004A214DF20710FDF7A0FD00214DF20810F3
:10331000FDF79BFD5C214DF20910FDF796FD0021A4
:103320004DF20A10FDF791FD81214DF20B10FDF7D2
:103330008CFD00214DF20C10FDF787FDA6214DF20A
:103340000D10FDF782FD00214DF20E10FDF77DFD01
:10335000E5214DF20F10FDF778FD01214DF210101F
:10336000FDF773FD13214DF21110FDF76EFD0121E4
:103370004DF21210FDF769FD54214DF21310FDF7C7
:1033800064FD01214DF21410FDF75FFD82214DF225
:103390001510FDF75AFD01214DF21610FDF755FDF0
:1033A000CA214DF21710FDF750FD02214DF2181001
:1033B000FDF74BFD00214DF21910FDF746FD0221EE
:1033C0004DF21A10FDF741FD01214DF21B10FDF7E2
:1033D0003CFD02214DF21C10FDF737FD34214DF26A
:1033E0001D10FDF732FD02214DF21E10FDF72DFDDF
:1033F00067214DF21F10FDF728FD02214DF220102C
:10340000FDF723FD84214DF22110FDF71EFD022161
:103410004DF22210FDF719FDA4214DF22310FDF706
:1034200014FD02214DF22410FDF70FFDB7214DF2DE
:103430002510FDF70AFD02214DF22610FDF705FDCE
:10344000CF214DF22710FDF700FD02214DF228108B
:10345000FDF7FBFCDE214DF22910FDF7F6FC022101
:103460004DF22A10FDF7F1FCF2214DF22B10FDF781
:10347000ECFC02214DF22C10FDF7E7FCFE214DF291
:103480002D10FDF7E2FC03214DF22E10FDF7DDFCBF
:1034900010214DF22F10FDF7D8FC03214DF2301012
:1034A000FDF7D3FC33214DF23110FDF7CEFC0321A3
:1034B0004DF23210FDF7C9FC6D214DF23310FDF7CE
:1034C000C4FC00214FF45240FDF7BFFC33214DF204
:1034D0000120FDF7BAFC00214DF20220FDF7B5FCFA
:1034E000342101E0540000204DF20320FDF7ADFC33
:1034F00000214DF20420FDF7A8FC3A214DF20520F1
:10350000FDF7A3FC00214DF20620FDF79EFC4A21A9
:103510004DF20720FDF799FC00214DF20820FDF740
:1035200094FC5C214DF20920FDF78FFC00214DF247
:103530000A20FDF78AFC81214DF20B20FDF785FC66
:1035400000214DF20C20FDF780FCA6214DF20D204C
:10355000FDF77BFC00214DF20E20FDF776FCE52106
:103560004DF20F20FDF771FC01214DF21020FDF707
:103570006CFC13214DF21120FDF767FC01214DF287
:103580001220FDF762FC54214DF21320FDF75DFC83
:1035900001214DF21420FDF758FC82214DF2152037
:1035A000FDF753FC01214DF21620FDF74EFCCA2118
:1035B0004DF21720FDF749FC02214DF21820FDF7CE
:1035C00044FC00214DF21920FDF73FFC02214DF291
:1035D0001A20FDF73AFC01214DF21B20FDF735FCC6
:1035E00002214DF21C20FDF730FC34214DF21D204C
:1035F000FDF72BFC02214DF21E20FDF726FC672172
:103600004DF21F20FDF721FC02214DF22020FDF795
:103610001CFC84214DF22120FDF717FC02214DF204
:103620002220FDF712FCA4214DF22320FDF70DFC12
:1036300002214DF22420FDF708FCB7214DF2252090
:10364000FDF703FC02214DF22620FDF7FEFBCF2102
:103650004DF22720FDF7F9FB02214DF22820FDF75E
:10366000F4FBDE214DF22920FDF7EFFB02214DF2A4
:103670002A20FDF7EAFBF2214DF22B20FDF7E5FBB6
:1036800002214DF22C20FDF7E0FBFE214DF22D2012
:10369000FDF7DBFB03214DF22E20FDF7D6FB1021B9
:1036A0004DF22F20FDF7D1FB03214DF23020FDF725
:1036B000CCFB33214DF23120FDF7C7FB03214DF246
:1036C0003220FDF7C2FB6D214DF23320FDF7BDFB2B
:1036D00000214FF45340FDF7B8FB33214DF2013088
:1036E000FDF7B3FB00214DF20230FDF7AEFB3421B4
:1036F0004DF20330FDF7A9FB00214DF20430FDF738
:10370000A4FB3A214DF20530FDF79FFB00214DF25D
:103710000630FDF79AFB4A214DF20730FDF795FB85
:1037200000214DF20830FDF790FB5C214DF209308D
:10373000FDF78BFB00214DF20A30FDF786FB81215E
:103740004DF20B30FDF781FB00214DF20C30FDF7FF
:103750007CFBA6214DF20D30FDF777FB00214DF2E9
:103760000E30FDF772FBE5214DF20F30FDF76DFBDA
:1037700001214DF21030FDF768FB13214DF211309D
:10378000FDF763FB01214DF21230FDF75EFB542182
:103790004DF21330FDF759FB01214DF21430FDF7C6
:1037A00054FB82214DF21530FDF74FFB01214DF204
:1037B0001630FDF74AFBCA214DF21730FDF745FBE5
:1037C00002214DF21830FDF740FB00214DF2193077
:1037D000FDF73BFB02214DF21A30FDF736FB0121CC
:1037E0004DF21B30FDF731FB02214DF21C30FDF78D
:1037F0002CFB34214DF21D30FDF727FB02214DF249
:103800001E30FDF722FB67214DF21F30FDF71DFB37
:1038100002214DF22030FDF718FB84214DF22130BA
:10382000FDF713FB02214DF22230FDF70EFBA42120
:103830004DF22330FDF709FB02214DF22430FDF754
:1038400004FBB7214DF22530FDF7FFFA02214DF2BE
:103850002630FDF7FAFACF214DF22730FDF7F5FAC1
:1038600002214DF22830FDF7F0FADE214DF2293029
:10387000FDF7EBFA02214DF22A30FDF7E6FAF221CC
:103880004DF22B30FDF7E1FA02214DF22C30FDF71D
:10389000DCFAFE214DF22D30FDF7D7FA03214DF26F
:1038A0002E30FDF7D2FA10214DF22F30FDF7CDFA70
:1038B00003214DF23030FDF7C8FA33214DF231309B
:1038C000FDF7C3FA03214DF23230FDF7BEFA6D2148
:1038D0004DF23330FDF7B9FA00214FF45440FDF7B3
:1038E000B4FA33214DF20140FDF7AFFA00214DF259
:1038F0000240FDF7AAFA34214DF20340FDF7A5FA84
:1039000000214DF20440FDF7A0FA3A214DF20540A6
:10391000FDF79BFA00214DF20640FDF796FA4A2189
:103920004DF20740FDF791FA00214DF20840FDF7F6
:103930008CFA5C214DF20940FDF787FA00214DF227
:103940000A40FDF782FA81214DF20B40FDF77DFA26
:1039500000214DF20C40FDF778FAA6214DF20D4002
:10396000FDF773FA00214DF20E40FDF76EFAE521E6
:103970004DF20F40FDF769FA01214DF21040FDF7BD
:1039800064FA13214DF21140FDF75FFA01214DF267
:103990001240FDF75AFA54214DF21340FDF755FA43
:1039A00001214DF21440FDF750FA82214DF21540ED
:1039B000FDF74BFA01214DF21640FDF746FACA21F8
:1039C0004DF21740FDF741FA02214DF21840FDF784
:1039D0003CFA00214DF21940FDF737FA02214DF271
:1039E0001A40FDF732FA01214DF21B4000E006E3D8
:1039F000FDF72BFA02214DF21C40FDF726FA342187
:103A00004DF21D40FDF721FA02214DF21E40FDF757
:103A10001CFA67214DF21F40FDF717FA02214DF203
:103A20002040FDF712FA84214DF22140FDF70DFAF6
:103A300002214DF22240FDF708FAA4214DF2234065
:103A4000FDF703FA02214DF22440FDF7FEF9B721FC
:103A50004DF22540FDF7F9F902214DF22640FDF720
:103A6000F4F9CF214DF22740FDF7EFF902214DF295
:103A70002840FDF7EAF9DE214DF22940FDF7E5F98E
:103A800002214DF22A40FDF7E0F9F2214DF22B40E0
:103A9000FDF7DBF902214DF22C40FDF7D6F9FE21AE
:103AA0004DF22D40FDF7D1F903214DF22E40FDF7E7
:103AB000CCF910214DF22F40FDF7C7F903214DF24B
:103AC0003040FDF7C2F933214DF23140FDF7BDF929
:103AD00003214DF23240FDF7B8F96D214DF233402C
:103AE000FDF7B3F900214FF45540FDF7AEF933214E
:103AF0004DF20150FDF7A9F900214DF20250FDF7FA
:103B0000A4F934214DF20350FDF79FF900214DF245
:103B10000450FDF79AF93A214DF20550FDF795F959
:103B200000214DF20650FDF790F94A214DF2075061
:103B3000FDF78BF900214DF20850FDF786F95C2165
:103B40004DF20950FDF781F900214DF20A50FDF7C1
:103B50007CF981214DF20B50FDF777F900214DF2F0
:103B60000C50FDF772F9A6214DF20D50FDF76DF9DD
:103B700000214DF20E50FDF768F9E5214DF20F508E
:103B8000FDF763F901214DF21050FDF75EF91321A5
:103B90004DF21150FDF759F901214DF21250FDF788
:103BA00054F954214DF21350FDF74FF901214DF214
:103BB0001450FDF74AF982214DF21550FDF745F9F1
:103BC00001214DF21650FDF740F9CA214DF2175070
:103BD000FDF73BF902214DF21850FDF736F90021AF
:103BE0004DF21950FDF731F902214DF21A50FDF74F
:103BF0002CF901214DF21B50FDF727F902214DF25E
:103C00001C50FDF722F934214DF21D50FDF71DF92E
:103C100002214DF21E50FDF718F967214DF21F5099
:103C2000FDF713F902214DF22050FDF70EF9842122
:103C30004DF22150FDF709F902214DF22250FDF716
:103C400004F9A4214DF22350FDF7FFF802214DF2B3
:103C50002450FDF7FAF8B7214DF22550FDF7F5F89D
:103C600002214DF22650FDF7F0F8CF214DF22750FA
:103C7000FDF7EBF802214DF22850FDF7E6F8DE21C2
:103C80004DF22950FDF7E1F802214DF22A50FDF7DF
:103C9000DCF8F2214DF22B50FDF7D7F802214DF25E
:103CA0002C50FDF7D2F8FE214DF22D50FDF7CDF846
:103CB00003214DF22E50FDF7C8F810214DF22F5080
:103CC000FDF7C3F803214DF23050FDF7BEF8332164
:103CD0004DF23150FDF7B9F803214DF23250FDF7A6
:103CE000B4F86D214DF23350FDF7AFF800214FF4D9
:103CF0005640FDF7AAF833214DF20160FDF7A5F813
:103D000000214DF20260FDF7A0F834214DF203606E
:103D1000FDF79BF800214DF20460FDF796F83A217B
:103D20004DF20560FDF791F800214DF20660FDF7B8
:103D30008CF84A214DF20760FDF787F800214DF21B
:103D40000860FDF782F85C214DF20960FDF77DF80F
:103D500000214DF20A60FDF778F881214DF20B60E9
:103D6000FDF773F800214DF20C60FDF76EF8A62107
:103D70004DF20D60FDF769F800214DF20E60FDF780
:103D800064F8E5214DF20F60FDF75FF801214DF277
:103D90001060FDF75AF813214DF21160FDF755F848
:103DA00001214DF21260FDF750F854214DF21360DD
:103DB000FDF74BF801214DF21460FDF746F8822122
:103DC0004DF21560FDF741F801214DF21660FDF747
:103DD0003CF8CA214DF21760FDF737F802214DF289
:103DE0001860FDF732F800214DF21960FDF72DF84B
:103DF00002214DF21A60FDF728F801214DF21B60F7
:103E0000FDF723F802214DF21C60FDF71EF8342166
:103E10004DF21D60FDF719F802214DF21E60FDF70D
:103E200014F867214DF21F60FDF70FF802214DF2E3
:103E30002060FDF70AF884214DF22160FDF705F8B6
:103E400002214DF22260FDF700F8A4214DF223601B
:103E5000FCF7FBFF02214DF22460FCF7F6FFB721CF
:103E60004DF22560FCF7F1FF02214DF22660FCF7D0
:103E7000ECFFCF214DF22760FCF7E7FF02214DF266
:103E80002860FCF7E2FFDE214DF22960FCF7DDFF40
:103E900002214DF22A60FCF7D8FFF2214DF22B608F
:103EA000FCF7D3FF02214DF22C60FCF7CEFFFE2180
:103EB0004DF22D60FCF7C9FF03214DF22E60FCF797
:103EC000C4FF10214DF22F60FCF7BFFF03214DF21C
:103ED0003060FCF7BAFF33214DF23160FCF7B5FFDB
:103EE00003214DF23260FCF7B0FF6D214DF23360DB
:103EF000FCF7ABFF55214FF47040FCF7A6FFAA2159
:103F00004FF20100FCF7A1FF52214FF20200FCF733
:103F10009CFF08214FF20300FCF797FF00214FF2AE
:103F20000400FCF792FFCC214FF43140FCF78DFFE9
:103F300000214BF20110FCF788FF05214FF43640B9
:103F4000FCF783FF70214FF43740FCF77EFF7021B0
:103F50004BF20170FCF779FF01214FF43840FCF778
:103F600074FF03214BF60100FCF76FFF03214BF6B2
:103F70000200FCF76AFF03214BF60300FCF765FF24
:103F800002214FF43C40FCF760FF00214BF601405A
:103F9000FCF75BFF00214BF60240FCF756FFD021F7
:103FA0004FF44940FCF751FF02214CF60110FCF799
:103FB0004CFF50214CF60210FCF747FF50214CF605
:103FC0000310FCF742FF50214CF60410FCF73DFFB4
:103FD00000214FF45450FCF738FF55214FF468503E
:103FE000FCF733FF4FF48850FCF720FF782002F0F5
:103FF0003EF94FF42450FCF719FF01F05EB9FE487A
:10400000808849F2253188427ED147F6F001E520CB
:10401000FCF71BFF4FF480710120FCF716FF4FF4F3
:10402000E0610220FCF711FF41F230010320FCF7B0
:104030000CFF00210420FCF708FF40F202210820B9
:10404000FCF703FF00210920FCF7FFFE00210A20F6
:10405000FCF7FBFE00210C20FCF7F7FE00210D20F1
:10406000FCF7F3FE00210F20FCF7EFFE00211020EB
:10407000FCF7EBFE07211120FCF7E7FE00211220E0
:10408000FCF7E3FE00211320FCF7DFFE00210720F0
:10409000FCF7DBFE41F290611020FCF7D6FE40F207
:1040A00027211120FCF7D1FE9D211220FCF7CDFE27
:1040B0004FF4C8511320FCF7C8FE25212920FCF736
:1040C000C4FE0D212B20FCF7C0FE07213020FCF799
:1040D000BCFE40F203313120FCF7B7FE0321322051
:1040E000FCF7B3FE40F206213520FCF7AEFE0821B6
:1040F0003620FCF7AAFE40F206413720FCF7A5FE69
:104100004FF44171382000E057E0FCF79EFE072194
:104110003920FCF79AFE40F202613C20FCF795FE44
:1041200008213D20FCF791FE00215020FCF78DFE78
:10413000EF215120FCF789FE00215220FCF785FE7B
:1041400040F23F115320FCF780FE4FF427416020DE
:10415000FCF77BFE01216120FCF777FE00216A203D
:10416000FCF773FE00218020FCF76FFE0021812008
:10417000FCF76BFE00218220FCF767FE0021832004
:10418000FCF763FE00218420FCF75FFE0021852000
:10419000FCF75BFE10219020FCF757FE4FF4C06146
:1041A0009220FCF752FE40F233110720FCF74DFE3F
:1041B00022210020FCF749FE1FE78F48808849F242
:1041C000283188427ED141F28F01EC20FCF73DFE80
:1041D00041F23421EF20FCF738FE4FF480710120CA
:1041E000FCF733FE4FF4E0610220FCF72EFE41F2B3
:1041F00030010320FCF729FE00210420FCF725FEF6
:1042000040F202210820FCF720FE00210920FCF7E3
:104210001CFE00210A20FCF718FE01210C20FCF7EF
:1042200014FE00210D20FCF710FE00210F20FCF7EA
:104230000CFE00211020FCF708FE07211120FCF7DE
:1042400004FE00211220FCF700FE00211320FCF7E1
:10425000FCFD01210720FCF7F8FD322002F02BF8CD
:1042600041F290411020FCF7F0FD40F2272111208F
:10427000FCF7EBFD322002F01EF88A211220FCF739
:10428000E4FD322002F017F84FF4D0511320FCF770
:10429000DCFD06212920FCF7D8FD0D212B20FCF7A1
:1042A000D4FD322002F007F800212020FCF7CDFDDC
:1042B00000212120FCF7C9FD322001F0FCFF002184
:1042C000302000E074E0FCF7C0FD40F204613120D2
:1042D000FCF7BBFD40F205313220FCF7B6FD0021B2
:1042E0003520FCF7B2FD40F609413620FCF7ADFD64
:1042F0004FF401713720FCF7A8FD40F2013138205E
:10430000FCF7A3FD40F207713920FCF79EFD002168
:104310003C20FCF79AFD40F60A213D20FCF795FD74
:10432000322001F0C8FF00215020FCF78EFDEF2164
:104330005120FCF78AFD00215220FCF786FD40F257
:104340003F115320FCF781FD4FF427416020FCF71B
:104350007CFD01216120FCF778FD00216A20FCF73B
:1043600074FD00218020FCF770FD00218120FCF706
:104370006CFD00218220FCF768FD00218320FCF702
:1043800064FD00218420FCF760FD00218520FCF7FE
:104390005CFD10219020FCF758FD4FF4C061922085
:1043A000FCF753FD40F233110720FCF74EFD24E6E5
:1043B0001148808849F2203188427DD10021084689
:1043C000FCF743FD4FF480710120FCF73EFD4FF4F4
:1043D000E0610220FCF739FD41F230010320FCF7D7
:1043E00034FD00210420FCF730FD40F202210820BA
:1043F000FCF72BFD002101E0540000200920FCF710
:1044000024FD00210A20FCF720FD01210C20FCF7EF
:104410001CFD00210D20FCF718FD00210F20FCF7EA
:1044200014FD322001F047FF40F201110720FCF794
:104430000CFD322001F03FFF4FF486511020FCF7B5
:1044400004FD07211120FCF700FD4FF488711220B4
:10445000FCF7FBFC4FF430611320FCF7F6FC002165
:104460002920FCF7F2FC44F210012B20FCF7EDFCB4
:1044700000215020FCF7E9FCEF215120FCF7E5FC7E
:1044800000215220FCF7E1FC40F23F115320FCF7E1
:10449000DCFC4FF41C516020FCF7D7FC01216120AB
:1044A000FCF7D3FC00216A20FCF7CFFC0021802020
:1044B000FCF7CBFC002100E031E08120FCF7C5FCDB
:1044C00000218220FCF7C1FC00218320FCF7BDFC09
:1044D00000218420FCF7B9FC00218520FCF7B5FC05
:1044E00010219020FCF7B1FC00219220FCF7ADFCDC
:1044F00001219320FCF7A9FC4FF488719520FCF76B
:10450000A4FC00219720FCF7A0FC00219820FCF7D8
:104510009CFC40F273110720FCF797FC6DE5FE4808
:10452000808849F2313188427DD141F21401E7207F
:10453000FCF78BFC4FF480710120FCF786FC4FF4F4
:1045400000710220FCF781FC41F238010320FCF7E6
:104550007CFC40F202210820FCF777FC00210920B6
:10456000FCF773FC00210A20FCF76FFC00210C20F3
:10457000FCF76BFC00210D20FCF767FC00210F20ED
:10458000FCF763FC00211020FCF75FFC07211120E1
:10459000FCF75BFC00211220FCF757FC00211320E4
:1045A000FCF753FCC82001F086FE41F29061102018
:1045B000FCF74BFC40F227211120FCF746FC32208F
:1045C00001F079FE0C211220FCF73FFC322001F0B3
:1045D00072FE4FF400611320FCF737FC11212920F3
:1045E000FCF733FC0B212B20FCF72FFC322001F0D1
:1045F00062FE00212020FCF728FC40F23F11212020
:10460000FCF723FC00213020FCF71FFC4FF48371E2
:104610003120FCF71AFC00213220FCF716FC4FF485
:104620000171352000E064E0FCF70FFC41F20A6103
:104630003620FCF70AFC40F207713720FCF705FC36
:104640004FF483713820FCF700FC40F207713920E9
:10465000FCF7FBFB40F202413C20FCF7F6FB40F686
:104660000F413D20FCF7F1FB00215020FCF7EDFB52
:10467000EF215120FCF7E9FB00215220FCF7E5FB7C
:1046800040F23F115320FCF7E0FB4FF41C51602037
:10469000FCF7DBFB01216120FCF7D7FB00216A203E
:1046A000FCF7D3FB00218020FCF7CFFB0021812009
:1046B000FCF7CBFB00218220FCF7C7FB0021832005
:1046C000FCF7C3FB00218420FCF7BFFB0021852001
:1046D000FCF7BBFB10219020FCF7B7FB4FF4C06147
:1046E0009220FCF7B2FB40F233110720FCF7ADFB40
:1046F00083E48948808845F2084188427ED14FF49E
:1047000080710120FCF7A1FB4FF4E0610220FCF76F
:104710009CFB41F230010320FCF797FB00210420B1
:10472000FCF793FB40F207210820FCF78EFB0021E9
:104730000920FCF78AFB00210A20FCF786FB0021F8
:104740000C20FCF782FB00210D20FCF77EFB0021F2
:104750000F20FCF77AFB142001F0ADFD41F2B061AF
:104760001020FCF772FB01211120FCF76EFB0121E8
:104770001720FCF76AFB4FF49C711220FCF765FBD5
:104780004FF400611320FCF760FB09212920FCF79E
:104790005CFB09212A20FCF758FB0021A420FCF730
:1047A00054FB00215020FCF750FBEF215120FCF777
:1047B0004CFB00215220FCF748FB40F23F115320F4
:1047C000FCF743FB4FF41C516020FCF73EFB01213A
:1047D0006120FCF73AFB00216A20FCF736FB002140
:1047E0008020FCF732FB00218120FCF72EFB00210A
:1047F0008220FCF72AFB0021832000E023E0FCF765
:1048000024FB00218420FCF720FB00218520FCF7FD
:104810001CFB13219020FCF718FB00219220FCF7D1
:1048200014FB03219320FCF710FB4FF488719520B3
:10483000FCF70BFB40F273110720FCF706FB32205C
:1048400001F039FDB8E43448808841F205518842CE
:104850007ED100210720FCF7F8FA322001F02BFD71
:104860004FF48E711220FCF7F0FA0121A420FCF71E
:10487000ECFA0F210820FCF7E8FA08210A20FCF7DF
:10488000E4FA08210D20FCF7E0FA40F2077130202D
:10489000FCF7DBFA07213120FCF7D7FA40F203617D
:1048A0003220FCF7D2FA4FF4E0613320FCF7CDFA66
:1048B00040F202213420FCF7C8FA02213520FCF72F
:1048C000C4FA41F60F713620FCF7BFFA40F20771C7
:1048D0003720FCF7BAFA00213820FCF7B6FA00219D
:1048E0003920FCF7B2FA40F207713A20FCF7ADFA32
:1048F00000213B20FCF7A9FA07213C20FCF7A5FA90
:1049000000213D20FCF7A1FA322001F0D4FC012166
:104910000720FCF79AFA01E054000020012117203B
:10492000FCF793FA322001F0C6FC4FF4BD51102081
:10493000FCF78BFA40F217211120FCF786FA4FF4AE
:104940008F711220FCF781FA4FF47061132000E0A0
:1049500097E0FCF77AFA00212A20FCF776FA0A2180
:104960002920FCF772FA4FF49F711220FCF76DFAC0
:1049700000215020FCF769FAEF215120FCF765FA7D
:1049800000215220FCF761FA40F23F115320FCF75E
:104990005CFA4FF41C516020FCF757FA01216120AA
:1049A000FCF753FA00216A20FCF74FFA002180201F
:1049B000FCF74BFA00218120FCF747FA0021822006
:1049C000FCF743FA00218320FCF73FFA0021842002
:1049D000FCF73BFA00218520FCF737FA13219020E1
:1049E000FCF733FA4FF440719220FCF72EFA0521C0
:1049F0009320FCF72AFA00219520FCF726FA0021E3
:104A00009720FCF722FA00219820FCF71EFA4FF4B9
:104A100080710120FCF719FA4FF4E0610220FCF7E5
:104A200014FA41F238010320FCF70FFA00210420A8
:104A3000FCF70BFA00210C20FCF707FA00210F20ED
:104A4000FCF703FA00212020FCF7FFF900212120C8
:104A5000FCF7FBF921210720FCF7F7F9142001F0FE
:104A60002AFC61210720FCF7F0F9142001F023FC57
:104A700040F273110720FCF7E8F9142001F01BFC49
:104A800095E4FE4880884BF2055188427ED1002192
:104A90000846FCF7DAF900210846FCF7D6F90021B0
:104AA0000846FCF7D2F900210846FCF7CEF90121AF
:104AB000A420FCF7CAF9142001F0FDFB4FF41C51AF
:104AC0006020FCF7C2F940F202210820FCF7BDF992
:104AD0004FF405713020FCF7B8F943F2157131201D
:104AE000FCF7B3F940F204613220FCF7AEF940F66E
:104AF00016613320FCF7A9F942F211213420FCF7AA
:104B0000A4F94FF4A8513520FCF79FF948F207515A
:104B10003620FCF79AF941F207413720FCF795F966
:104B200041F203413820FCF790F920213920FCF7AD
:104B30008CF91A219020FCF788F900211020FCF74D
:104B400084F907211120FCF780F900211220FCF7DD
:104B50007CF900211320FCF778F9142001F0ABFB5D
:104B60004FF4E6611020FCF770F940F23711112084
:104B7000FCF76BF9142001F09EFB4FF4DC7112205E
:104B8000FCF763F9142001F096FB00E083E04FF49A
:104B900070611320FCF759F980212A20FCF755F9A0
:104BA00048212920FCF751F9142001F084FB4FF42F
:104BB00080710120FCF749F94FF4E0610220FCF715
:104BC00044F941F238010320FCF73FF940F2022199
:104BD0000820FCF73AF900210A20FCF736F90021F9
:104BE0000C20FCF732F900210D20FCF72EF93021C2
:104BF0000E20FCF72AF900215020FCF726F9EF21BE
:104C00005120FCF722F900215220FCF71EF940F256
:104C10003F115320FCF719F94FF41C516020FCF7A9
:104C200014F901216120FCF710F900216A20FCF73A
:104C30000CF911219020FCF708F94FF4C061922083
:104C4000FCF703F940F202419320FCF7FEF8022141
:104C50009420FCF7FAF8142001F02DFB0121072025
:104C6000FCF7F3F8142001F026FB61210720FCF784
:104C7000ECF840F273110720FCF7E7F80021202040
:104C8000FCF7E3F800212120FCF7DFF822210020C7
:104C9000FCF7DBF811E3794880884CF20551884233
:104CA0007ED100210846FCF7D0F800210846FCF729
:104CB000CCF8142001F0FFFA00210846FCF7C5F8F3
:104CC00000210846FCF7C1F800210846FCF7BDF8B2
:104CD00000210846FCF7B9F80121A420FCF7B5F83B
:104CE000142001F0E8FA4FF41C516020FCF7ADF8F5
:104CF00040F606010820FCF7A8F840F203713020C6
:104D0000FCF7A3F801213120FCF79FF804213220A1
:104D1000FCF79BF84FF481713320FCF796F84FF4C1
:104D200040713420FCF791F840F203113520FCF774
:104D30008CF81F213620FCF788F840F203713720E9
:104D4000FCF783F801213820FCF77FF80421392093
:104D5000FCF77BF815219020FCF777F84FF482617F
:104D60001020FCF772F840F247211120FCF76DF893
:104D70004FF4DE711220FCF768F84FF460611320E5
:104D8000FCF763F8782001F096FA4FF48071012067
:104D9000FCF75BF84FF400710220FCF756F800E0D6
:104DA00050E041F230010320FCF74FF808210A20BF
:104DB000FCF74BF800210C20FCF747F820210E20CF
:104DC000FCF743F800210F20FCF73FF800212020DA
:104DD000FCF73BF800212120FCF737F83D212A2081
:104DE000FCF733F8142001F066FA2D212920FCF796
:104DF0002CF800215020FCF728F84DF2EF0151204B
:104E0000FCF723F800215220FCF71FF840F23F1175
:104E10005320FCF71AF800216120FCF716F8002156
:104E20006A20FCF712F84FF440719220FCF70DF85D
:104E300005219320FCF709F84FF480710720FCF757
:104E400004F83AE20D48808844F2315188427CD11E
:104E500001210020FBF7F9FF0A2001F02CFA41F2B2
:104E600028611020FBF7F1FF0E211220FBF7EDFF68
:104E700040F639211320FBF7E8FF01E05400002041
:104E80000A2001F018FA40211120FBF7DEFF502123
:104E90001520FBF7DAFF0A2001F00DFA1E2112207F
:104EA000FBF7D3FF0A2001F006FA4FF4B1511020AE
:104EB000FBF7CBFF42F639211320FBF7C6FF0A2090
:104EC00001F0F9F94FF480710120FBF7BEFF4FF4B8
:104ED00040710220FBF7B9FF41F238010320FBF7D4
:104EE000B4FF40F202210820FBF7AFFF08210A209F
:104EF000FBF7ABFF00213020FBF7A7FF40F2024198
:104F00003120FBF7A2FF4FF483713220FBF79DFFA6
:104F100040F203513320FBF798FF4FF482713420A5
:104F2000FBF793FF40F201313520FBF78EFF40F293
:104F300007713620FBF789FF40F205313720FBF778
:104F400084FF4FF40271382000E040E0FBF77DFF62
:104F500040F60B713920FBF778FF02214120FBF767
:104F600074FF4FF41C516020FBF76FFF012161209B
:104F7000FBF76BFF4FF404719020FBF766FF4FF4D3
:104F800085719220FBF761FF04219320FBF75DFF01
:104F90004FF48071A020FBF758FF01210720FBF799
:104FA00054FF21210720FBF750FF23210720FBF7A7
:104FB0004CFF33210720FBF748FF40F23311072055
:104FC000FBF743FF0021A020FBF73FFF75E1F74807
:104FD000808844F2355188427ED130211520FBF77C
:104FE00034FF10219A20FBF730FF20211120FBF71E
:104FF0002CFF43F228411020FBF727FF022112204B
:10500000FBF723FF41F238011320FBF71EFF282096
:1050100001F051F912210846FBF717FF282001F093
:105020004AF943F220411020FBF70FFF43F2380109
:105030001320FBF70AFF462001F03DF90021302044
:10504000FBF703FF40F202413120FBF7FEFE40F286
:1050500007313220FBF7F9FE4FF441713320FBF7A3
:10506000F4FE04213420FBF7F0FE40F2014135202C
:10507000FBF7EBFE40F207713620FBF7E6FE40F24D
:1050800005313720FBF7E1FE4FF4C2613820FBF712
:10509000DCFE4FF4C2613920FBF7D7FE4FF480717C
:1050A0000120FBF7D2FE4FF440710220FBF7CDFE4A
:1050B00041F230010320FBF7C8FE40F6080108204A
:1050C000FBF7C3FE08210A20FBF7BFFE4FF41C517B
:1050D0006020FBF7BAFE00E031E001216120FBF720
:1050E000B4FE4FF49F719020FBF7AFFE4FF4807138
:1050F0009220FBF7AAFE4FF480719320FBF7A5FEE8
:105100004FF44051A020FBF7A0FE1021A320FBF795
:105110009CFE01210720FBF798FE21210720FBF7C9
:1051200094FE23210720FBF790FE33210720FBF795
:105130008CFE40F233110720FBF787FEBDE09B4851
:10514000808841F663118842F8D1E220FBF76EFEB9
:105150001D20FBF76EFE0220FBF76BFE0420FBF721
:1051600068FE642001F083F8E020FBF75FFE012079
:10517000FBF75FFE0A2001F09EF8E020FBF756FEE9
:105180000320FBF756FE0C2001F095F80120FBF7F9
:105190004DFE0A2001F08FF8E620FBF747FE2F2096
:1051A000FBF747FEFF20FBF744FEFF20FBF741FE25
:1051B000B020FBF73BFE2020FBF73BFE0020FBF777
:1051C00038FE0320FBF735FE40F21F30FBF731FEBF
:1051D0000120FBF72EFE40F2DF10FBF72AFE002035
:1051E000FBF727FEB420FBF721FE0420FBF721FE8E
:1051F00040F21F40FBF71DFE0020FBF71AFE2E2099
:10520000FBF717FE0020FBF714FE0020FBF711FE52
:105210000020FBF70EFE0020FBF70BFEB620FBF78D
:1052200005FE0220FBF705FE4FF40370FBF701FEBD
:105230000020FBF7FEFD1720FBF7FBFD1520FBF719
:10524000F8FD0020FBF7F5FD0020FBF7F2FDF02054
:10525000FBF7ECFD0320FBF7ECFD2920FBF7E6FD57
:10526000D020FBF7E3FD0020FBF7E3FDBE20FBF7BA
:10527000DDFD0520FBF7DDFDFE20FBF7DAFD01205B
:10528000FBF7D7FD0020FBF7D4FD0020FBF7D1FD95
:105290000020FBF7CEFDB820FBF7C8FD0320FBF78D
:1052A000C8FD0120FBF7C5FDBA20FBF7BFFD0120BB
:1052B000FBF7BFFD6420FCF71CFA0020FCF741FA65
:1052C00001203B4908604FF6FF70FCF726FC1FB039
:1052D00000BD2DE9FC4F05460E4617469846DDF801
:1052E0002C90002001903148808846F604018842C5
:1052F00029D12E488079012825D1AB4635462B4847
:105300000088C01B401E86B2474628480088A0EB94
:105310000B00401E1FFA80F80020244988712A20C3
:1053200048812B20888143463A4631462846CDF8AD
:105330000090FFF7CEFF01201C4988712B20488187
:105340002A2088811CE0781B401C80B201903446E2
:1053500014E021462846FBF7A5FDFBF786FD4FF03C
:10536000000A06E01348A0F800900AF101001FFAB5
:1053700080FA01988245F5DB601C84B24445E8DD83
:10538000BDE8FC8F2DE9F84F07460D46904699463B
:10539000DDF828B0A8EB0700401C1FFA80FAA9EB43
:1053A0000500401C80B2009000241AE05400002048
:1053B000808121420008006C281981B23846FBF731
:1053C00071FDFBF752FD002607E004FB0A603BF885
:1053D0001000F8490880701C86B25645F5DB601C49
:1053E00084B200988442E7DBBDE8F88F2DE9FF4FD7
:1053F00084B081468A460020039002900698A0EB74
:1054000009050798A0EB0A06CDF80490CDF800A096
:10541000002D01DD012705E00DB9002702E04FF066
:10542000FF376D42002E02DD4FF0010806E016B98D
:105430004FF0000802E04FF0FF387642B54201DD40
:105440002C4600E034464FF0000B21E0009A91B268
:10545000019A90B2FCF77FF80398284403900298D1
:10546000304402900398A04205DD0398001B03908E
:105470000198384401900298A04205DD0298001B73
:1054800002900098404400900BF101001FFA80FB4D
:10549000601C8345DADD08B0BDE8F08FF0B5044646
:1054A0000D4616461F462B46324629462046FFF734
:1054B0009DFF3B46224629462046FFF797FF3B4685
:1054C000324639462046FFF791FF3B463246294691
:1054D0003046FFF78BFFF0BD2DE9F04306460F463F
:1054E0009046002445460320A0EB48093CE07A1B87
:1054F00091B2321990B2FCF72EF83A1B91B27219A0
:1055000090B2FCF728F83A1991B2721990B2FCF7F0
:1055100022F87A1991B2321990B2FCF71CF87A1974
:1055200091B2321B90B2FCF716F83A1991B2721B85
:1055300090B2FCF710F87A1B91B2321B90B2FCF7D4
:105540000AF83A1B91B2721B90B2FCF704F8641C83
:10555000B9F1000F03DAA000801D814404E0601B54
:1055600080000A3081446D1EAC42C0DDBDE8F0838E
:105570002DE9F84F80460E4617461C46B346204696
:10558000E31704EB5373DB1021464FEAE47C04EB92
:105590005C7C4FEAEC0CA4EBCC0CBCF1000F02D00D
:1055A0004FF0010C01E04FF0000C6344224604EB85
:1055B000D27C4FEA6C0C03FB0CF3DBB20093A7F137
:1055C0002000C7B2002556E00C2C07D107EB47009E
:1055D000794901EB800010F8059013E0102C05D1FB
:1055E000764800EB071010F805900BE0182C07D157
:1055F00007EBC700724901EB800010F8059001E04D
:10560000BDE8F88F4FF0000A2FE009F0800030B1BC
:105610006C48028831464046FBF7ABFF07E00A982A
:1056200028B96948028831464046FBF7A2FF4FEA95
:1056300049604FEA1069701C86B264484088B042E5
:1056400000DCDDE7A6EB0B00A0420AD15E4608F1C4
:1056500001001FFA80F85D480088404500DCCFE774
:1056600006E00AF1010000F0FF0ABAF1080FCCDBF6
:1056700000BF681CC5B200988542A5DB00BFBFE72C
:1056800010B50246012000E050430B00A1F10104D7
:10569000E1B2F9D110BD2DE9FF4F81B00746914627
:1056A0001E460E9D4FF0000A002439E0301B401EBC
:1056B000C1B20A20FFF7E4FFB9FBF0F00A21B0FB0A
:1056C000F1F201FB1208BAF1000F16D1701EA042D0
:1056D00013DDB8F1000F0ED10020AB4605EBDB71F6
:1056E000491001FB0471009088B22B4620220299D8
:1056F000FFF73EFF12E04FF0010A0020AB4605EB3A
:10570000DB71491001FB0471009088B208F130018F
:10571000CAB22B460299FFF72BFF00BF601CC4B230
:10572000B442C3DB05B0BDE8F08F2DE9FF4F82B076
:10573000064692461F46DDE90F48002001900025ED
:105740005CE0781B401EC1B20A20FFF799FFBAFB4C
:10575000F0F00A21B0FBF1F201FB1209019840BB05
:10576000781EA84236DDB9F1000F31D108F0800073
:1057700078B108F00100A34604EBDB71491001FB8E
:105780000561009088B2234630220399FFF7F0FEAE
:105790000EE008F00100A34604EBDB71491001FBA9
:1057A0000561009088B2234620220399FFF7E0FEAE
:1057B00022E00FE00008006C0A9900087E9D0008B6
:1057C0006EA300082A0000202C00002054000020B6
:1057D0000120019008F00100A34604EBDB714910A1
:1057E00001FB0561009088B209F13001CAB223467D
:1057F0000399FFF7BDFE00BF681CC5B2BD42A0DB28
:1058000006B0BDE8F08F2DE9F84704460D469046F6
:105810009946DDE9096704F0FF0A08EB04001FFA66
:1058200080F809EB05001FFA80F916E0444502DB19
:105830005446A81985B24D4500DB14E000200090C5
:105840003A78334629462046FFF792FE304606EB6B
:10585000D07104EB61018CB27F1C38787E2802DCA9
:1058600038782028E2DA00BFBDE8F88708B50320C1
:105870008DF8000000208DF801008DF80200012055
:105880008DF80300684600F008FE08BDF0B5034639
:105890000C461546642093FBF0F0C6B2642093FBDF
:1058A000F0F700FB1730C1B2132E02DD01F16400E6
:1058B000C1B20846CF1701EB977701EBA707BAB241
:1058C000072092FBF0F700FB172082B25719601EE9
:1058D000DFF8D4C31CF80000384482B2CF1701EBC4
:1058E0009777BF10A1EB87071FB9032C01DA501E71
:1058F00082B2072092FBF0F700FB1720C0B2F0BD88
:105900000146CA1701EB92729210A1EB820292B982
:10591000642091FBF0F200FB121050B94FF4C870F4
:1059200091FBF0F200FB121008B901207047002033
:10593000FCE70120FAE70020F8E770B50026002414
:10594000002501F085FF0646D848B6FBF0F4D8489C
:105950000088A0423CD0D6490C8040F2B27510E0DD
:105960002846FFF7CDFF40B1B4F5B77F02D3A4F5C9
:10597000B77404E0681C85B206E0A4F26D14681CDC
:1059800085B2B4F5B67FEBD800BFCA488580002544
:1059900016E0C8498888FFF7B3FF30B1012D04D164
:1059A0001D2C01D31D3C09E00CE0C348405DA04222
:1059B00003D8C148405D241A00E003E0681C85B2AA
:1059C0001C2CE6D200BF681CBA498871601CC871E3
:1059D000B648B6FBF0F100FB11644FF46160B4FB14
:1059E000F0F0B44908704FF46160B4FBF0F100FBD3
:1059F00011403C21B0FBF1F0AE4948704FF46160BA
:105A0000B4FBF0F100FB11403C21B0FBF1F201FBD3
:105A10001200A84988700B46DA7999799888FFF7BF
:105A200035FFA4490872002070BD2DE9F05F0646DD
:105A30000F4690469946DDE90AAB002440F2B27069
:105A4000864203DB40F63300864202DD0120BDE8DA
:105A5000F09F40F2B2750AE02846FFF751FF10B1FF
:105A60009648044401E096480444681C85B2B54257
:105A7000F2DB781EC7B2002510E08F48405D40F28F
:105A8000A321484304EBC0143046FFF739FF18B197
:105A9000012D01D185480444681C85B2BD42ECDB70
:105AA000A8F1010040F2A321484304EBC014C9EB64
:105AB0004910C0EB092004EB0014CAEB0A1004EBF8
:105AC00080045C4401214FF0C05001F046FC0120ED
:105AD00001F06DFA204601F0C4FE01F0F5FE002051
